:020000040000FA
:040000008A11112828
:10000800FE00030EF3000408F4000A08F50083124A
:1000180003137F08F6008A15952D8A111328831378
:100028006B30FD000D30FE007730FF005E3084003D
:100038008A1588258A118A1562258A11F7008A157A
:1000480063258A11F8008A1564258A11F9008A1532
:1000580065258A11FA004E3084005E308A156625BF
:100068008A11FB01FC01FD0183018A15072E831209
:100078000313C601C701C801C901C201C30155085C
:10008800BD005408BC000310BD0CBC0C0310BD0C13
:10009800BC0C3C08950054080339BC00033003101D
:1000A800BC0DFF3E031D532803103C0D0C38970070
:1000B800892A0718602861286428D801D80A662880
:1000C800D801D701C330FF007F089F051F08D20160
:1000D800D301C4019F149F18722873286F288316B0
:1000E80003131E0883120313D2070318D30A1E082A
:1000F800D307C73083120313BC008228BC0B8128A6
:10010800852800000130FF007F0883120313C4070D
:1001180010304402031C912892286E285308BD0011
:100128005208BC0004300310BD0CBC0CFF3E031D7C
:1001380097283C08C8070318C90A3D08C9070130B1
:10014800FF007F08C30704304302031CAC28AD2816
:100158002929C3014908BD004808BC000310BD0C8B
:10016800BC0C0310BD0CBC0C3C08C8003D08C90001
:100178000030B0000030AF000330AE00FF30AD00FB
:100188004808A0004908A100A201A3010030A70067
:100198000030A6000130A500F430A4008A11A2277F
:1001A8008A11831203132308B4002208B30021081C
:1001B800B2002008B1008A156B268A118312031336
:1001C8003008C1002F08C0002E08BF002D08BE004F
:1001D8000030B0000030AF000030AE001830AD0085
:1001E8004108A3004008A2003F08A1003E08A00063
:1001F8000030A7000030A6000030A5000A30A40097
:100208008A11A2278A11831203132308B400220833
:10021800B3002108B2002008B1008A156B268A11A4
:10022800831203132E08CF002D08CE00C801C90180
:1002380000304F02033003194E02031824292529E0
:1002480029290330FF007F08D700C330FF007F084B
:100258009F051F15D201D301C5019F149F18352989
:1002680036293229831603131E0883120313D20773
:100278000318D30A1E08D307C73083120313BC0020
:100288004529BC0B4429482900000130FF007F089C
:1002980083120313C50710304502031C542955293E
:1002A80031295308BD005208BC0004300310BD0CAE
:1002B800BC0CFF3E031D5A293C08C6070318C70A91
:1002C8003D08C7070130FF007F08C207043042021B
:1002D800031C6F297029322AC2014708BD0046084D
:1002E800BC000310BD0CBC0C0310BD0CBC0C3C08BE
:1002F800C6003D08C7000030B0000030AF00023033
:10030800AE000030AD004608A0004708A100A201D9
:10031800A3010030A7000030A6000030A5008C30F3
:10032800A4008A11A2278A11831203132308B40098
:100338002208B3002108B2002008B1008A156327FB
:100348008A11831203132E08D1002D08D000003023
:1003580051027E30031950020318B329B429E62943
:10036800033055028430031954020318BC29BD29EF
:10037800E62900304F02143003194E020318C5292C
:10038800C629E6290130D4070318D50A0030D50755
:100398005508BD005408BC000310BD0CBC0C03106C
:1003A800BD0CBC0C3C08950054080339BC00033054
:1003B8000310BC0DFF3E031DDC2903103C0D0C3857
:1003C8009700FF29003051027F3003195002031CA7
:1003D800EE29EF29FF29003055020630031954028F
:1003E800031CF729F829FF290130D4020030031C27
:1003F800D503D502CC2900304F02153003194E021F
:10040800031C072A082A302A00305502063003192F
:100418005402031C102A112A302A0130D402003059
:10042800031CD503D5025508BD005408BC000310B1
:10043800BD0CBC0C0310BD0CBC0C3C08950054084A
:100448000339BC0003300310BC0DFF3E031D272AEF
:1004580003103C0D0C389700C601C701003051024B
:10046800783003195002031C3A2A3B2A402A1530D7
:10047800FF007F08EA006E2A00305102723003192B
:100488005002031C482A492A4E2A1430FF007F08CC
:10049800EA006E2A003051026C3003195002031C26
:1004A800562A572A5C2A1330FF007F08EA006E2A72
:1004B80000305102663003195002031C642A652A71
:1004C8006A2A1230FF007F08EA006E2A1730FF0000
:1004D8007F08EA005608031D722A732A7C2A4F08EF
:1004E800A1004E08A00067308A15C9258A11892AFB
:1004F8005603031D802A812A892A5108A100500821
:10050800A00067308A15C9258A11023083120313A7
:1005180057060319902A912A5D28080083120313AD
:10052800C601C701C801C901C201C301D401D5016F
:100538005508BD005408BC000310BD0CBC0C0310CA
:10054800BD0CBC0C3C08950054080339BC000330B2
:100558000310BC0DFF3E031DAC2A03103C0D0C38E4
:100568009700A82C0718B92ABA2ABD2AD801D80A90
:10057800BF2AD801D701C330FF007F089F051F0895
:10058800D201D301C4019F149F18CB2ACC2AC82AB0
:10059800831603131E0883120313D2070318D30A02
:1005A8001E08D307C73083120313BC00DB2ABC0B19
:1005B800DA2ADE2A00000130FF007F0883120313C5
:1005C800C40710304402031CEA2AEB2AC72A53083E
:1005D800BD005208BC0004300310BD0CBC0CFF3E2B
:1005E800031DF02A3C08C8070318C90A3D08C907B3
:1005F8000130FF007F08C30704304302031C052BAA
:10060800062BC02BC3014908BD004808BC000310D5
:10061800BD0CBC0C0310BD0CBC0C3C08C8003D084C
:10062800C9000030B0000030AF000330AE00FF302A
:10063800AD004808A0004908A100A201A3010030AC
:10064800A7000030A6000130A500F430A4008A11EC
:10065800A2278A11831203132308B4002208B300C7
:100668002108B2002008B1008A156B268A1183126E
:1006780003133008C1002F08C0002E08BF002D0842
:10068800BE000030B0000030AF000030AE001830BF
:10069800AD004108A3004008A2003F08A1003E08A1
:1006A800A0000030A7000030A6000030A5000A30E6
:1006B800A4008A11A2278A11831203132308B40005
:1006C8002208B3002108B2002008B1008A156B2661
:1006D8008A11831203132E08CF002D08CE00C801FB
:1006E800C90100304F02143003194E0203187D2B44
:1006F8007E2BA72B033055028430031954020318AC
:10070800862B872BA72B0130D4070318D50A003076
:10071800D5075508BD005408BC000310BD0CBC0C1F
:100728000310BD0CBC0C3C08950054080339BC00F0
:1007380003300310BC0DFF3E031D9D2B03103C0D21
:100748000C389700C02B00304F02153003194E02A9
:10075800031CAF2BB02BC02B0030550206300319F9
:100768005402031CB82BB92BC02B0130D402003023
:10077800031CD503D5028D2BC330FF007F089F05CE
:100788001F15D201D301C5019F149F18CC2BCD2B67
:10079800C92B831603131E0883120313D2070318E9
:1007A800D30A1E08D307C73083120313BC00DC2BFF
:1007B800BC0BDB2BDF2B00000130FF007F0883120E
:1007C8000313C50710304502031CEB2BEC2BC82B79
:1007D8005308BD005208BC0004300310BD0CBC0C0B
:1007E800FF3E031DF12B3C08C6070318C70A3D0846
:1007F800C7070130FF007F08C20704304202031C0C
:10080800062C072C512CC2014708BD004608BC0025
:100818000310BD0CBC0C0310BD0CBC0C3C08C6007E
:100828003D08C7000030B0000030AF000230AE0015
:100838000030AD004608A0004708A100A201A301AE
:100848000030A7000030A6000030A5008C30A400BE
:100858008A11A2278A11831203132308B4002208DD
:10086800B3002108B2002008B1008A1563278A1155
:10087800831203132E08D1002D08D0000030510236
:100888007E3003195002031C4A2C4B2C4F2C02308B
:10089800FF007F08D700C601C70100305102783039
:1008A80003195002031C592C5A2C5F2C1530FF00D9
:1008B8007F08EA008D2C0030510272300319500273
:1008C800031C672C682C6D2C1430FF007F08EA008D
:1008D8008D2C003051026C3003195002031C752C0A
:1008E800762C7B2C1330FF007F08EA008D2C00301B
:1008F8005102663003195002031C832C842C892C66
:100908001230FF007F08EA008D2C1730FF007F08A7
:10091800EA005608031D912C922C9B2C4F08A1002D
:100928004E08A00067308A15C9258A11A82C5603DD
:10093800031D9F2CA02CA82C5108A1005008A00032
:1009480067308A15C9258A118312031357030319BF
:10095800AE2CAF2CB62A080083120313C001C101C4
:10096800BE01C001C101D401D5015508BD0054081C
:10097800BC000310BD0CBC0C0310BD0CBC0C3C0827
:10098800950054080339BC0003300310BC0DFF3E2A
:10099800031DC92C03103C0D0C389700B52D071802
:1009A800D62CD72CDA2CD801D80ADB2CD801C330A6
:1009B800FF007F089F051F15D201D301BF019F14B7
:1009C8009F18E72CE82CE42C831603131E088312C7
:1009D8000313D2070318D30A1E08D307C73083129C
:1009E8000313BC00F72CBC0BF62CFA2C00000130CA
:1009F800FF007F0883120313BF0710303F02031C58
:100A0800062D072DE32C5308BD005208BC00043006
:100A18000310BD0CBC0CFF3E031D0C2D3C08C00789
:100A28000318C10A3D08C1070130FF007F08BE074F
:100A380004303E02031C212D222D692DBE014108E0
:100A4800BD004008BC000310BD0CBC0C0310BD0C5D
:100A5800BC0C3C08C0003D08C1000030B0000030AC
:100A6800AF000230AE000030AD004008A0004108E1
:100A7800A100A201A3010030A7000030A6000030A9
:100A8800A5008C30A4008A11A2278A1183120313AF
:100A98002308B4002208B3002108B2002008B100DE
:100AA8008A1563278A11831203132E08D1002D0893
:100AB800D0005108A1005008A00067308A15C92548
:100AC8008A1183120313C001C101003051027E3024
:100AD800031950020318712D722D792D5803031D27
:100AE800762D772D792DD701D70A0030510278302D
:100AF80003195002031C812D822D872D1530FF000C
:100B08007F08EA00B52D00305102723003195002F7
:100B1800031C8F2D902D952D1430FF007F08EA00BF
:100B2800B52D003051026C3003195002031C9D2D65
:100B38009E2DA32D1330FF007F08EA00B52D00304D
:100B48005102663003195002031CAB2DAC2DB12D98
:100B58001230FF007F08EA00B52D1730FF007F082C
:100B6800EA00033057060319BA2DBB2DD32C080011
:100B780083120313C001C101BE01C001C101D40128
:100B8800D5015508BD005408BC000310BD0CBC0CB1
:100B98000310BD0CBC0C3C08950054080339BC007C
:100BA80003300310BC0DFF3E031DD52D03103C0D73
:100BB8000C389700B32E0718E22DE32DE82DD80145
:100BC800D80AD701D70AE92DD801C330FF007F081A
:100BD8009F051F15D201D301BF019F149F18F52D42
:100BE800F62DF22D831603131E0883120313D20762
:100BF8000318D30A1E08D307C73083120313BC0097
:100C0800052EBC0B042E082E00000130FF007F08C3
:100C180083120313BF0710303F02031C142E152E36
:100C2800F12D5308BD005208BC0004300310BD0C60
:100C3800BC0CFF3E031D1A2E3C08C0070318C10A4E
:100C48003D08C1070130FF007F08BE0704303E029F
:100C5800031C2F2E302E772EBE014108BD00400800
:100C6800BC000310BD0CBC0C0310BD0CBC0C3C0834
:100C7800C0003D08C1000030B0000030AF000230B5
:100C8800AE000030AD004008A0004108A100A2015C
:100C9800A3010030A7000030A6000030A5008C306A
:100CA800A4008A11A2278A11831203132308B4000F
:100CB8002208B3002108B2002008B1008A15632772
:100CC8008A11831203132E08D1002D08D000510871
:100CD800A1005008A00067308A15C9258A1183121F
:100CE8000313C001C10100305102783003195002CA
:100CF800031C7F2E802E852E1530FF007F08EA000A
:100D0800B32E00305102723003195002031C8D2E8D
:100D18008E2E932E1430FF007F08EA00B32E003089
:100D280051026C3003195002031C9B2E9C2EA12EDD
:100D38001330FF007F08EA00B32E003051026630FE
:100D480003195002031CA92EAA2EAF2E1230FF0041
:100D58007F08EA00B32E1730FF007F08EA00570823
:100D68000319B72EB82EDF2D080083120313CB000A
:100D78006408BE006508BF006608C0006108C100BD
:100D88006208C2006308C300CA014A083E3E8400E4
:100D980083130008BC00BD010310BC0DBD0D03107A
:100DA800BC0DBD0D3C08AD003D08AE000030AE1BCB
:100DB800FF30AF00B0000030B4003D30B300093060
:100DC800B2000030B1008A1563278A118312031319
:100DD8003008C7002F08C6002E08C5002D08C4001B
:100DE8000030B0000F30AF004230AE004030AD00F0
:100DF8004B08840083130008BC00840A0008BD0067
:100E08003C08A0003D08A100A201A3014708A700D3
:100E18004608A6004508A5004408A4008A11A22790
:100E28008A11831203132308B4002208B30021088F
:100E3800B2002008B1008A156B268A1183120313A9
:100E48002D08FF3EC8002E080318013EFF3EC900CA
:100E5800013049020030031948020318342F352F96
:100E6800362F402F0130FF007F08CA0703304A029F
:100E7800031C3F2F402FC92E4808831603139200E6
:100E8800831203134A08413E84008313000892002A
:100E98004B08043E84000003031D532F542F7B2F5F
:100EA8004B08023E84000008BC00840A0008BD000C
:100EB8000310BD0CBC0C0310BD0CBC0C3C08950009
:100EC8004B08023E840000080339BC0003300310BD
:100ED800BC0DFF3E031D6B2F03103C0D0C38970013
:100EE800FB30FF007F08831603138705A12F4B08EB
:100EF800023E84000008BC00840A0008BD000310FC
:100F0800BD0CBC0C0310BD0CBC0C3C089B004B0872
:100F1800023E840000080339BC0003300310BC0DF6
:100F2800FF3E031D922F03103C0D0C389D00FD3031
:100F3800FF007F088316031387050800003083121B
:100F48000313AC000030AB000030AA000030A90049
:100F5800201CAF2FB02FC72F2408A907250803117D
:100F68000318013E0319B92FAA072608031103180D
:100F7800013E0319C02FAB07270803110318013ED0
:100F88000319C72FAC070130A8000310A40DA50D45
:100F9800A60DA70DA80BC92F01300310A30CA20C96
:100FA800A10CA00CFF3E031DD12F2308220421040D
:100FB8002004031DE02FE12FAC2F2C08A3002B08E1
:100FC800A2002A08A1002908A0000800D730FF00C5
:100FD8007F08831603138105F830FF007F08810519
:100FE8000330FF007F088104C030FF007F088B04B6
:020FF8000800EF
:1010000008308A000408840A82070034FA348234E3
:10101000B934AB34C3346B347B34A234FB34EB349B
:101020001B341A3411349B3401346B34F13458348A
:0C103000103430347034F03408340034D4
:101ABC00831203131215080001340434103401345A
:101ACC0064008001840A0406031900340406672D9F
:101ADC00FB30FF007F088B058B16831203138101EB
:101AEC00080000340134023400340134023401346F
:101AFC000434103401340234033413347E088A0065
:101B0C007F0882008A1584258A158000840A0408BF
:101B1C007D0603190034FF0A0319FE0A882D0B1DDC
:101B2C00982D992DBC2DFB30FF007F088B0567305D
:101B3C008A15D3268A150130FB070318FC0A0030DE
:101B4C00FC077C08803AFF0083307F02031DB02D18
:101B5C00E8307B02031CB32DB42DBC2DFB01FC0122
:101B6C000130FF007F0883120313D6067608831218
:101B7C000313FF0075088A0074088400730E830039
:101B8C00FE0E7E0E090083120313A20022088400AD
:101B9C0083138001DD2D6430A0020030031CA103EF
:101BAC00A1020130FF00220884007F08800700306A
:101BBC0021026430031920020318E52DE62DD12DE6
:101BCC00220A84008001F62D0A30A0020030031C8A
:101BDC00A103A1020130FF00220A84007F088007C4
:101BEC00003021020A30031920020318FE2DFF2DAC
:101BFC00EA2D2008FF002208023E84007F088000A6
:101C0C0008008A11EA278A158A156E258A1583160B
:101C1C00031789018316031386010F30FF007F0819
:101C2C008705071483160317081488140330FF0064
:101C3C007F08831603138504831203139F17C33085
:101C4C00FF007F089F051F15831603139F17831230
:101C5C0003131F14DD01DD0AE830D9000330DA006C
:101C6C00DB01DC0159308A11B9268A158A155E25EB
:101C7C008A15512E8A11BC258A15512E8A11922251
:101C8C008A15512E8A113B208A15512E8A11B024A7
:101C9C008A15512ED701831203135708CC00CD019E
:101CAC004D08003A03195B2E502E4C08003A0319CC
:101CBC00402E013A0319442E033A0319482E013AD7
:101CCC0003194C2E502E8A11112800308312031345
:101CDC00B9000030B8000030B7000030B600300852
:101CEC002F042E042D0403197C2E7D2ECA2EBA012E
:101CFC00BA0A8D2E0130B5000310AD0DAE0DAF0D2F
:101D0C00B00DB50B822E0130FF007F08BA07B01F53
:101D1C00902E912E802E0130B5000310B60DB70D0C
:101D2C00B80DB90DB50B932E30083402031DA82E37
:101D3C002F083302031DA82E2E083202031DA82ED5
:101D4C002D083102031CAB2EAC2EBB2E2D08B1027C
:101D5C002E08031C2E0FB2022F08031C2F0FB302E8
:101D6C003008031C300FB402361401300310B00CD1
:101D7C00AF0CAE0CAD0CFF3E031DBC2E0130BA02F5
:101D8C00031DC92ECA2E912E3908B0003808AF0099
:101D9C003708AE003608AD000800F20083120313BA
:101DAC0086014C2FEF30FF007F08870572088400F6
:101DBC00831300080319E32EE42EEE2E7208840020
:101DCC000008013E84008A1500208A158600F42E36
:101DDC00183084008A1500208A1586000230FF0016
:101DEC007F08FA008717622F7F30FF007F08870576
:101DFC00720A840083130008013E84008A150020B7
:101E0C008A15860006150330FF007F08FA000717B5
:101E1C00622FBF30FF007F0887057208023E8400E6
:101E2C0083130008013E84008A1500208A15860061
:101E3C000430FF007F08FA008716622FDF30FF00A6
:101E4C007F0887055803031D2C2F2D2F3A2F72085E
:101E5C00033E840083130008013E84008A15002091
:101E6C008A1508388600452F7208033E84008313B8
:101E7C000008013E84008A1500208A158600FA01AC
:101E8C00FA0A0716622FFA01FA0A622F7A08F00092
:101E9C00F1017108003A0319542F492F7008013AC7
:101EAC000319D82E033A0319FA2E013A03190F2FEE
:101EBC00073A0319242F492F080083120313B70183
:101ECC00B01F692F6A2F772FAD09AE09AF09B00982
:101EDC00AD0A0319AE0A0319AF0A0319B00AB70108
:101EEC00B70AB41F7A2F7B2F8A2FB109B209B30915
:101EFC00B409B10A0319B20A0319B30A0319B40AD3
:101F0C000130FF007F08B7060030BB000030BA007C
:101F1C000030B9000030B80030082F042E042D0416
:101F2C000319992F9A2FE72FB601B60AAA2F013061
:101F3C00B5000310AD0DAE0DAF0DB00DB50B9F2F51
:101F4C000130FF007F08B607B01FAD2FAE2F9D2FBD
:101F5C000130B5000310B80DB90DBA0DBB0DB50BA2
:101F6C00B02F30083402031DC52F2F083302031D78
:101F7C00C52F2E083202031DC52F2D083102031C5C
:101F8C00C82FC92FD82F2D08B1022E08031C2E0FD5
:101F9C00B2022F08031C2F0FB3023008031C300FA2
:101FAC00B402381401300310B00CAF0CAE0CAD0CF5
:101FBC00FF3E031DD92F0130B602031DE62FE72F7C
:101FCC00AE2F37080319EB2FEC2FF72FB809B909EF
:101FDC00BA09BB09B80A0319B90A0319BA0A0319D1
:101FEC00BB0A3B08B0003A08AF003908AE0038080D
:041FFC00AD0008002C
:04400E00D42FFF3F6D
:00000001FF
